{
  "contractName": "Lottery",
  "abi": [
    {
      "inputs": [],
      "payable": false,
      "stateMutability": "nonpayable",
      "type": "constructor"
    },
    {
      "constant": true,
      "inputs": [],
      "name": "manager",
      "outputs": [
        {
          "internalType": "address",
          "name": "",
          "type": "address"
        }
      ],
      "payable": false,
      "stateMutability": "view",
      "type": "function"
    },
    {
      "constant": true,
      "inputs": [
        {
          "internalType": "uint256",
          "name": "",
          "type": "uint256"
        }
      ],
      "name": "players",
      "outputs": [
        {
          "internalType": "address payable",
          "name": "",
          "type": "address"
        }
      ],
      "payable": false,
      "stateMutability": "view",
      "type": "function"
    },
    {
      "constant": true,
      "inputs": [],
      "name": "getPlayers",
      "outputs": [
        {
          "internalType": "address payable[]",
          "name": "",
          "type": "address[]"
        }
      ],
      "payable": false,
      "stateMutability": "view",
      "type": "function"
    },
    {
      "constant": false,
      "inputs": [],
      "name": "enter",
      "outputs": [],
      "payable": true,
      "stateMutability": "payable",
      "type": "function"
    },
    {
      "constant": false,
      "inputs": [],
      "name": "pickWinner",
      "outputs": [],
      "payable": false,
      "stateMutability": "nonpayable",
      "type": "function"
    }
  ],
  "bytecode": "0x608060405234801561001057600080fd5b50336000806101000a81548173ffffffffffffffffffffffffffffffffffffffff021916908373ffffffffffffffffffffffffffffffffffffffff160217905550610824806100606000396000f3fe60806040526004361061004a5760003560e01c8063481c6a751461004f5780635d495aea146100a65780638b5b9ccc146100bd578063e97dcb6214610129578063f71d96cb14610133575b600080fd5b34801561005b57600080fd5b506100646101ae565b604051808273ffffffffffffffffffffffffffffffffffffffff1673ffffffffffffffffffffffffffffffffffffffff16815260200191505060405180910390f35b3480156100b257600080fd5b506100bb6101d3565b005b3480156100c957600080fd5b506100d26103b8565b6040518080602001828103825283818151815260200191508051906020019060200280838360005b838110156101155780820151818401526020810190506100fa565b505050509050019250505060405180910390f35b610131610446565b005b34801561013f57600080fd5b5061016c6004803603602081101561015657600080fd5b81019080803590602001909291905050506105b0565b604051808273ffffffffffffffffffffffffffffffffffffffff1673ffffffffffffffffffffffffffffffffffffffff16815260200191505060405180910390f35b6000809054906101000a900473ffffffffffffffffffffffffffffffffffffffff1681565b6000809054906101000a900473ffffffffffffffffffffffffffffffffffffffff1673ffffffffffffffffffffffffffffffffffffffff163373ffffffffffffffffffffffffffffffffffffffff1614610278576040517f08c379a000000000000000000000000000000000000000000000000000000000815260040180806020018281038252602381526020018061077d6023913960400191505060405180910390fd5b6002600180549050116102d6576040517f08c379a000000000000000000000000000000000000000000000000000000000815260040180806020018281038252602181526020018061075c6021913960400191505060405180910390fd5b60006001805490506102e66105ec565b816102ed57fe5b069050600181815481106102fd57fe5b9060005260206000200160009054906101000a900473ffffffffffffffffffffffffffffffffffffffff1673ffffffffffffffffffffffffffffffffffffffff166108fc479081150290604051600060405180830381858888f1935050505015801561036d573d6000803e3d6000fd5b50600060405190808252806020026020018201604052801561039e5781602001602082028038833980820191505090505b50600190805190602001906103b492919061068e565b5050565b6060600180548060200260200160405190810160405280929190818152602001828054801561043c57602002820191906000526020600020905b8160009054906101000a900473ffffffffffffffffffffffffffffffffffffffff1673ffffffffffffffffffffffffffffffffffffffff16815260200190600101908083116103f2575b5050505050905090565b6000809054906101000a900473ffffffffffffffffffffffffffffffffffffffff1673ffffffffffffffffffffffffffffffffffffffff163373ffffffffffffffffffffffffffffffffffffffff1614156104ec576040517f08c379a000000000000000000000000000000000000000000000000000000000815260040180806020018281038252602e8152602001806107a0602e913960400191505060405180910390fd5b620f4240341015610548576040517f08c379a00000000000000000000000000000000000000000000000000000000081526004018080602001828103825260228152602001806107ce6022913960400191505060405180910390fd5b60013390806001815401808255809150509060018203906000526020600020016000909192909190916101000a81548173ffffffffffffffffffffffffffffffffffffffff021916908373ffffffffffffffffffffffffffffffffffffffff16021790555050565b600181815481106105bd57fe5b906000526020600020016000915054906101000a900473ffffffffffffffffffffffffffffffffffffffff1681565b60004442600160405160200180848152602001838152602001828054801561066957602002820191906000526020600020905b8160009054906101000a900473ffffffffffffffffffffffffffffffffffffffff1673ffffffffffffffffffffffffffffffffffffffff168152602001906001019080831161061f575b505093505050506040516020818303038152906040528051906020012060001c905090565b828054828255906000526020600020908101928215610707579160200282015b828111156107065782518260006101000a81548173ffffffffffffffffffffffffffffffffffffffff021916908373ffffffffffffffffffffffffffffffffffffffff160217905550916020019190600101906106ae565b5b5090506107149190610718565b5090565b61075891905b8082111561075457600081816101000a81549073ffffffffffffffffffffffffffffffffffffffff02191690555060010161071e565b5090565b9056fe4e6f7420656e6f75676820706c61796572732c206d696e696d756d20697320332e4f6e6c7920746865206d616e616765722063616e207069636b20612077696e6e65722e546865206d616e616765722063616e6e6f7420706172746963697061746520746f20746865206c6f74746572792e546865206d696e696d756d20616d6f756e742069732031303030303030207765692ea265627a7a72315820f60ed08c6f78e04f93d39b18001b66f60b92a6f2a00d573bf27ae36049f0465564736f6c63430005100032",
  "source": "// SPDX-License-Identifier: GPL-3.0\npragma solidity >=0.4.22 <0.8.0;\n\ncontract Lottery {\n    address public manager;\n    address payable[] public players;\n\n    function getPlayers() public view returns (address payable[] memory) {\n        return players;\n    }\n\n    constructor() public {\n        manager = msg.sender;\n    }\n    \n    function enter() public payable {\n        require(msg.sender != manager, \"The manager cannot participate to the lottery.\");\n        require(msg.value >= 1000000 wei, \"The minimum amount is 1000000 wei.\");\n        \n        players.push(msg.sender);\n    }\n    \n    function pickWinner() public managerOnly {\n        // require(msg.sender == manager,\"Only the manager can pick a winner.\");\n        require(players.length > 2, \"Not enough players, minimum is 3.\");\n        \n        uint winnerIndex = random() % players.length;\n        players[winnerIndex].transfer(address(this).balance);\n        players = new address payable[](0);\n    }\n    modifier managerOnly {\n        require(msg.sender == manager, \"Only the manager can pick a winner.\");\n        _;\n    }\n    \n    function random() private view returns (uint) {\n        // abi.encodePacked: encode given arguments into bytes\n        return uint(keccak256(abi.encodePacked(block.difficulty, block.timestamp, players)));\n    }\n}\n\n",
  "sourcePath": "/home/frey2/__DEV_PERSO__/solidity-experiments/solidity-lottery-contract/contracts/Lottery.sol",
  "compiler": {
    "name": "solc",
    "version": "0.5.16+commit.9c3226ce.Emscripten.clang"
  },
  "schemaVersion": "3.3.2",
  "updatedAt": "2020-11-21T20:44:57.394Z",
  "devdoc": {
    "methods": {}
  },
  "userdoc": {
    "methods": {}
  }
}